:100000000C9462000C948A000C948A000C948A0070
:100010000C948A000C948A000C948A000C948A0038
:100020000C948A000C948A000C948A000C94670249
:100030000C948A000C948A000C948A000C948A0018
:100040000C941D020C948A000C948A000C948A0073
:100050000C948A000C948A000C948A000C948A00F8
:100060000C948A000C948A000000000023002600F3
:10007000290000000008000201000003040700003E
:1000800000000000000000000000250028002B00F8
:1000900000000000240027002A00040404040404D3
:1000A0000404020202020202030303030303010227
:1000B00004081020408001020408102001020408F6
:1000C0001020480411241FBECFEFD8E0DEBFCDBF03
:1000D00011E0A0E0B1E0ECEEF9E002C005900D9275
:1000E000A030B107D9F721E0A0E0B1E001C01D9236
:1000F000A533B207E1F710E0C2E6D0E004C02197D3
:10010000FE010E94EE04C136D107C9F70E94280300
:100110000C94F4040C94000090E0FC01E255FF4FB5
:100120002491FC01E656FF4F8491882399F090E0DA
:10013000880F991FFC01E057FF4FA591B491FC0176
:10014000EA57FF4F859194918FB7F894EC91E22B89
:10015000EC938FBF0895833081F028F4813099F0BB
:100160008230A1F008958730A9F08830B9F084304A
:10017000D1F4809180008F7D03C0809180008F77C3
:1001800080938000089584B58F7702C084B58F7DF9
:1001900084BD08958091B0008F7703C08091B00036
:1001A0008F7D8093B0000895CF93DF93282F30E0A8
:1001B000F901EE58FF4F8491F901E255FF4FD491B8
:1001C000F901E656FF4FC491CC2391F081110E94B2
:1001D000AB00EC2FF0E0EE0FFF1FE859FF4FA591A9
:1001E000B491EC91ED2381E090E021F480E002C035
:1001F00080E090E0DF91CF9108951F93CF93DF933C
:10020000282F30E0F901EE58FF4F8491F901E255B3
:10021000FF4FD491F901E656FF4FC491CC23C1F0B2
:10022000162F81110E94AB00EC2FF0E0EE0FFF1FA4
:10023000EA57FF4FA591B4919FB7F894111104C0EC
:100240008C91D095D82302C0EC91DE2BDC939FBF1C
:10025000DF91CF911F9108953FB7F89480913101BC
:1002600090913201A0913301B091340126B5A89B41
:1002700005C02F3F19F00196A11DB11D3FBFBA2F38
:10028000A92F982F8827820F911DA11DB11DBC0198
:10029000CD0142E0660F771F881F991F4A95D1F75D
:1002A00008958F929F92AF92BF92CF92DF92EF927A
:1002B000FF920E942C014B015C018AE0C82ED12CD8
:1002C000E12CF12C0E942C01DC01CB018819990949
:1002D000AA09BB09883E9340A105B10598F321E026
:1002E000C21AD108E108F10888EE880E83E0981E52
:1002F000A11CB11CC114D104E104F10419F7FF9051
:10030000EF90DF90CF90BF90AF909F908F90089527
:10031000CF92DF92EF92FF92CF93DF93EC016032A6
:1003200082E078070CF03DC077FD06C0653B7105A3
:100330002CF064EB70E002C060E070E0898128E896
:1003400030E06901C81AD10887FDD394CC0CDD1CBC
:10035000CC0CDD1C0D2C000CEE08FF088A8128E572
:1003600032E0281B310987FD3395220F331F220FFE
:10037000331FC901330FAA0BBB0B9C01AD012C1914
:100380003D094E095F09DB010E94A90424EB30E01E
:1003900040E050E00E947F04C20ED31EE41EF51E12
:1003A000B60138813C3080F5298188E890E0821BD5
:1003B000910927FD9395880F991F880F991F68173A
:1003C000790784F08A8148E552E0481B510987FD8E
:1003D0005395440F551F440F551FCB014617570720
:1003E0000CF4CA010297880F991F4FB7F894232F76
:1003F00030E0F901EE0FFF1F2E0F3F1FF901EE5FF6
:10040000FE4F928381834FBFDF91CF91FF90EF909A
:10041000DF90CF900895892B79F41092800082E0CC
:10042000809381001092850010928400B19A80918F
:100430006F00826080936F0008951F920F920FB635
:100440000F9211242F933F938F939F93AF93BF935A
:1004500080912D0190912E01A0912F01B09130013A
:1004600030912C0123E0230F2D3720F40196A11D9C
:10047000B11D05C026E8230F0296A11DB11D2093D2
:100480002C0180932D0190932E01A0932F01B09306
:1004900030018091310190913201A0913301B091EE
:1004A00034010196A11DB11D809331019093320159
:1004B000A0933301B0933401BF91AF919F918F917D
:1004C0003F912F910F900FBE0F901F9018951F9284
:1004D0000F920FB60F9211242F933F934F935F9378
:1004E0006F937F938F939F93AF93BF93EF93FF93FC
:1004F0008091010187FF05C0109285001092840051
:100500001BC020910101022E000C330B80910001D1
:1005100090E02817390784F480910101082E000C1F
:10052000990BFC01EE0FFF1F8E0F9F1FFC01EE5F6A
:10053000FE4F808186FD15C0809101018F5F809301
:10054000010120910101022E000C330B809100016A
:1005500090E028173907C4F4809101018C3064F1D0
:1005600013C080910101082E000C990BFC01EE0FC5
:10057000FF1F8E0F9F1FFC01EE5FFE4F808160E02A
:100580008F730E94FD00D8CF8091840090918500E8
:10059000049680349C4918F480E49CE905C080915D
:1005A0008400909185000496909389008093880040
:1005B0008FEF809301013BC0209184003091850032
:1005C00080910101082E000C990BFC01EE0FFF1F1A
:1005D0008E0F9F1FFC01EE5FFE4F81819281820F83
:1005E000931F909389008093880080910101082EC9
:1005F000000C990BFC01EE0FFF1F8E0F9F1FFC01DB
:10060000EE5FFE4F808186FF12C080910101082EAF
:10061000000C990BFC01EE0FFF1F8E0F9F1FFC01BA
:10062000EE5FFE4F808161E08F730E94FD00FF91BD
:10063000EF91BF91AF919F918F917F916F915F915A
:100640004F913F912F910F900FBE0F901F901895D3
:10065000789484B5826084BD84B5816084BD85B59D
:10066000826085BD85B5816085BD80916E008160A9
:1006700080936E001092810080918100826080934F
:100680008100809181008160809381008091800051
:100690008160809380008091B10084608093B1007C
:1006A0008091B00081608093B00080917A00846076
:1006B00080937A0080917A00826080937A008091A2
:1006C0007A00816080937A0080917A0080688093BC
:1006D0007A001092C100809129018C3008F042C04C
:1006E00088E00E948C0080912901E82FF0E09F01B2
:1006F000220F331FE20FF31FEE5FFE4F9081907CBD
:100700009860908310922A0110922B016CE00E9455
:10071000E20490E02CE0829FB001112440E050E020
:100720009B01240F351FF901EE0FFF1F2E0F3F1FF6
:10073000F901EE5FFE4F208126FD07C04F5F5F4F3E
:100740004C30510569F70E940B02E0912901F0E05D
:10075000CF01880F991FE80FF91FEE5FFE4F8081D0
:1007600080648083809126018C3008F042C089E04B
:100770000E948C0080912601E82FF0E09F01220F5B
:10078000331FE20FF31FEE5FFE4F9081907C996064
:10079000908310922701109228016CE00E94E204DD
:1007A00090E02CE0829FB001112440E050E09B01DA
:1007B000240F351FF901EE0FFF1F2E0F3F1FF90108
:1007C000EE5FFE4F208126FD07C04F5F5F4F4C302C
:1007D000510569F70E940B02E0912601F0E0CF017C
:1007E000880F991FE80FF91FEE5FFE4F808180642C
:1007F000808360E070E089E291E00E94880160E01F
:1008000070E086E291E00E948801C0E0D0E082E0E2
:100810000E94D4005C0183E00E94D4006C0184E05B
:100820000E94D4007C0185E00E94D4008C01AA942F
:10083000AB2841F460E070E089E291E00E94880119
:100840000E945101CA94CD2841F464EB70E089E222
:1008500091E00E9488010E945101EA94EF2841F43E
:1008600060E070E086E291E00E9488010E94510100
:100870000130110541F464EB70E086E291E00E94E2
:1008800088010E945101209711F20E940000BFCF01
:10089000809100018C30A0F491E0980F90930001BA
:1008A0008093290190E0FC01EE0FFF1F8E0F9F1F28
:1008B000FC01EE5FFE4F88EB9BE09283818303C0D7
:1008C0008FEF80932901809100018C30A0F491E09A
:1008D000980F909300018093260190E0FC01EE0FA9
:1008E000FF1F8E0F9F1FFC01EE5FFE4F88EB9BE00A
:1008F0009283818308958FEF809326010895052EBA
:1009000097FB1EF400940E94960457FD07D00E94A6
:10091000B10407FC03D04EF40C9496045095409516
:10092000309521953F4F4F4F5F4F0895909580959B
:10093000709561957F4F8F4F9F4F08950E94D3040C
:10094000A59F900DB49F900DA49F800D911D112423
:100950000895B7FF0C949E040E949E04821B930B83
:100960000895A1E21A2EAA1BBB1BFD010DC0AA1FF0
:10097000BB1FEE1FFF1FA217B307E407F50720F008
:10098000A21BB30BE40BF50B661F771F881F991F83
:100990001A9469F760957095809590959B01AC01CC
:1009A000BD01CF010895A29FB001B39FC001A39FD5
:1009B000700D811D1124911DB29F700D811D112498
:1009C000911D0895991B79E004C0991F961708F0AE
:1009D000961B881F7A95C9F780950895EE0FFF1F23
:0C09E0000590F491E02D0994F894FFCFED
:107E0000112484B714BE81FFF0D085E080938100F7
:107E100082E08093C00088E18093C10086E0809377
:107E2000C20080E18093C4008EE0C9D0259A86E02C
:107E300020E33CEF91E0309385002093840096BBD3
:107E4000B09BFECF1D9AA8958150A9F7CC24DD24C4
:107E500088248394B5E0AB2EA1E19A2EF3E0BF2EE7
:107E6000A2D0813461F49FD0082FAFD0023811F036
:107E7000013811F484E001C083E08DD089C08234E0
:107E800011F484E103C0853419F485E0A6D080C0E4
:107E9000853579F488D0E82EFF2485D0082F10E0AE
:107EA000102F00270E291F29000F111F8ED06801E7
:107EB0006FC0863521F484E090D080E0DECF843638
:107EC00009F040C070D06FD0082F6DD080E0C81688
:107ED00080E7D80618F4F601B7BEE895C0E0D1E017
:107EE00062D089930C17E1F7F0E0CF16F0E7DF06D8
:107EF00018F0F601B7BEE89568D007B600FCFDCFD4
:107F0000A601A0E0B1E02C9130E011968C91119780
:107F100090E0982F8827822B932B1296FA010C0160
:107F200087BEE89511244E5F5F4FF1E0A038BF0790
:107F300051F7F601A7BEE89507B600FCFDCF97BE46
:107F4000E89526C08437B1F42ED02DD0F82E2BD052
:107F50003CD0F601EF2C8F010F5F1F4F84911BD097
:107F6000EA94F801C1F70894C11CD11CFA94CF0C13
:107F7000D11C0EC0853739F428D08EE10CD085E9AC
:107F80000AD08FE07ACF813511F488E018D01DD067
:107F900080E101D065CF982F8091C00085FFFCCF94
:107FA0009093C60008958091C00087FFFCCF809118
:107FB000C00084FD01C0A8958091C6000895E0E648
:107FC000F0E098E1908380830895EDDF803219F02E
:107FD00088E0F5DFFFCF84E1DECF1F93182FE3DFCA
:107FE0001150E9F7F2DF1F91089580E0E8DFEE27F6
:047FF000FF270994CA
:027FFE00040479
:0400000300007E007B
:00000001FF
